:100000000040002011000000FD040000FD0400007D
:1000100010B501F039F900F035FC00F08FFA00005E
:1000200070B572B699221C4B1C4D1A601C4B953A48
:100030001A601C4B7C321A601B4B763A1A601B4AC2
:100040001B4B18201A6002221A4B00241A6012233C
:100050002B6001F071F8F022174B12011A60174A59
:10006000174B18491A604022174B0D201C60174B84
:100070001A6000F095FF0D2000F0BEFF144B200029
:100080001C6001F009F9112303222B60114B1A6047
:10009000114B1D321A6070BD000302403000104049
:1000A0000000044008000440000304403104000044
:1000B00008030440180304400003014040FF00808F
:1000C0000000014025130000280003400401014006
:1000D0000C02224030003040000E3F400000000083
:1000E0000000000000000000000000000000000010
:1000F0000000000000000000000000000000000000
:1001000010B5064C2378002B07D1054B002B02D0ED
:10011000044800E000BF0123237010BD4801002007
:1001200000000000FC1F0000084B10B5002B03D09E
:100130000749084800E000BF07480368002B00D1CA
:1001400010BD064B002BFBD09847F9E700000000DC
:100150004C010020FC1F0000B8000020000000003F
:1001600010B5054C200001F04FF820686368010BC2
:10017000000589B2184310BDAC010020F8B5FFF7A7
:10018000EFFF00250C0422002B00801859412B00A2
:10019000220C801A99410B04040C1C43584B594DF6
:1001A000E118594B0A091A40584B09011940584B9C
:1001B0000A43D21893082B40564D92002A4013430D
:1001C000554AAC46554E9B18554D5A085B00324077
:1001D0002B401343534A54499B18544A1F0A1B028D
:1001E0000F4013403B4307013A00F027504D3F03B7
:1001F0002B60504B174023401F434F4B4B4AFF1877
:100200003B0A3F0217400B404C4A3B439B183D4A78
:100210009F08DB43174062469B0013401F43484B37
:10022000394AFF18FB431B091340384A3F01174066
:10023000444A3B439B183A4A5F085B0037401340EF
:100240003B436B60F02307041B053B403E4F374A9E
:1002500027403B43F02707401F433C4B0002FF1859
:10026000FB433F021B0A17400B40394A3B439B1894
:100270001F09DB43244A1B011740244A13401F4334
:10028000344B204AFF18FF43BB0813406246BF00AF
:100290001740314A3B439B18214A5F085B003740B7
:1002A00013403B43AB602D4B1C40F0231B01184017
:1002B0000443E0436400400814400640284B2643B2
:1002C000F6183309F643104A360113400F4A164018
:1002D0001E43244B154AF618F34336021B0A1940F5
:1002E0003240214B0A43D218D243064993080B40AF
:1002F000614692000A401A431C4BD218EA60F8BDCE
:1003000059C9947F333333330F0F0F0FF0F0F0F0F0
:100310004E384E0ACCCCCCCCDC84235755555555A1
:10032000AAAAAAAA247BDCA8FF00FF0000FF00FF06
:10033000B4010020FFFFF0FF41BD4B3946F6AC3F52
:10034000DAE94D414299797E0FFFFFF02DB1F6B207
:10035000B2C3ED1B731F94F5DBAEE973FFF0FFFF33
:1003600038E47C2339DEC7D99A0FEC4100C1C62896
:100370000023F0B585B06946114A9A1812785A548C
:100380000133102BF7D1009B1FBA019B1EBA029BB1
:100390001DBA039B1CBAFFF7F1FE0A4B00201A6836
:1003A00097420AD15A68964207D19A68954204D179
:1003B000D868001B4342434158B2C0B205B0F0BDFB
:1003C000F0F7FF0FB401002010B590B040220B49A8
:1003D000684601F0D7F9002318006C4608495A42D4
:1003E00059180978A25C914201D00130C0B2013B9A
:1003F0001A004032F1D110B010BDC04600200000FC
:10040000FF27000010B50A2000F022FE094800F086
:1004100065F80A2000F01CFE8022074B52001A608B
:10042000064A074B1A604022064B1A6000F076FC21
:1004300010BDC046402000000003014041FF008085
:1004400000000140B000002010B500F0D1F800F02D
:10045000D1FF002811D1063000F0B4FF012000F0D8
:10046000BDFF00F0C7FF002803D100F0ABFFFFF78E
:10047000C9FF002000F0A6FF14E000F0DBFF002819
:1004800010D1063000F0BEFF012000F0C7FF00F0E1
:10049000D1FF002803D100F0B5FFFFF7B3FF002024
:1004A00000F0B0FFFFF764FF002805D0642000F0E3
:1004B000CFFD00F033FC08E0FFF786FF002801D1F4
:1004C00000F02CFC044800F009F8642000F0C0FDA6
:1004D00000F09CF8FEE7C046532000000FB400B5C2
:1004E000B5B036AA02CA02A8019201F075F902A8B5
:1004F00000F036F935B008BC04B0184710B501F06B
:1005000015F903680C2B00D1FEE7FEE7030010B5D8
:1005100080240849084A08686401C3189A1AA2424C
:1005200001DC0B6005E001F001F90C230360012000
:10053000404210BDBC00002018020020F8B5002584
:100540000F49104B01394A1C14D000221F685C6807
:100550009E68A018B24203D0B858A0500432F8E701
:100560000200DE68141AA64201D020C2FAE7103356
:100570000139E8E701F0E0F8FFF766FFFEE7C04663
:10058000010000001C210000002370B50B480C4C3A
:100590000C4D9A002100032B00D8A958013381503B
:1005A0002C2BF6D1FFF73CFD074B1A68002A00D12F
:1005B0001A608022054B92051A6070BD0000002071
:1005C000FD04000000000000B000002008ED00E085
:1005D0008021064A10B5136809060B4313600820F2
:1005E00000F00AFD00F096F810BDC046000025405E
:1005F00010B5054C2378002B03D100F01DF8012322
:100600002370FFF7E5FF10BD6401002010B508203E
:1006100000F0FCFC00F090F8054A082013685B002D
:100620005B0813600022034B1A6000F0F9FC10BD58
:1006300000002540880F254070B5002407210425BF
:100640001C4A1D4B08201A601C4B1D4A1C601D4B88
:100650001A601D4B1D4A13601D4A11601D4A063960
:1006600014601D4A11601D4A13601D4B1C601D4B18
:100670001D6000F0CBFC0321082000F09DFC1A490E
:10068000082000F08DFC194B1C60194B1C60194BA5
:100690001C60194B1C60194B1D60194B1C601A68BB
:1006A000184B1A80184B1C60184B1C60184B1C70A0
:1006B00070BDC0460C0000020000254040002540EF
:1006C00001000A0048002540070000800003254083
:1006D0000403254010032540440025400002254026
:1006E0000402254050002540E9140000880E2540F2
:1006F000C80E2540480F2540080F2540C80F25404B
:10070000880F25406C010020C8010020C401002092
:10071000CC010020F021054A13688B4360390B435C
:100720001360034B1A88034B1A60704700030240A2
:100730006C010020880F2540F021064A13688B4386
:100740001360054B1A68E423DB001340034A13804F
:100750007047C04600030240880F25406C0100200E
:1007600010B504000134631E1878002802D000F090
:10077000A1FEF7E710BD004770B506000D0014009C
:10078000002802D0002000F055FC00207519002C34
:1007900005D0013C2B191B78C018C0B2F7E770BD1B
:1007A000FF23020070B59A43C0B01300541C6A4680
:1007B000FF34D51A1E78EE540133A342FAD1C3B2E6
:1007C000D45C8C4205D0000AD15480B2110000F0F4
:1007D0003BFB40B070BD0000013810B50B2830D88D
:1007E0000902494200F002FF06080A0C0E1014121A
:1007F00016191B20174B13E0174B16E0174B0AE096
:10080000174B12E0174B0BE0174B09E0174B02E0B8
:10081000174B00E0174BC91817E0174B05E0174BB3
:10082000C9180878C0B214E0154BC9180A7848787E
:100830008C780002230418430300C8781343000691
:1008400006E0002000F0F6FB00210B78487800025B
:10085000184310BDC0FF0100C1FF0100C5FF01002A
:10086000C9FF0100D0FF0100D1FF0100D6FF010048
:10087000D2FF0100D4FF0100D8FF0100DCFF01001E
:10088000E0FF01000C4B10B51A68102313400B4A0F
:1008900000D113601368802B0DD1002402202100A9
:1008A0001460FFF799FFA04205D021000220FFF756
:1008B00093FFFFF760FF10BD54000340B00000201D
:1008C000F8B5010004000320FFF786FF21000600B1
:1008D0000420FFF781FF210007000620FFF77CFFBF
:1008E0000025012828D021000320FFF775FF0136DD
:1008F0003602F7192E0001300002B84209D20378FF
:100900005A1ED2B2FD2A00D80126ED18EDB20130F0
:10091000F3E721000120FFF75FFF6D42EBB20625F0
:10092000834209D1002E07D0044B24026042C01834
:100930000121FFF735FF00252800F8BDD1FF010098
:10094000F0B5C24CA54400F009FE62B6002700973E
:100950000197962103AC46ADFF23220049002800F1
:1009600000F004FE0028F4D12188062900D8AFE168
:100970002A780423012A5CD16E88F21D8A4200D9AC
:1009800086E0962149008A4200D981E0AA1992792D
:10099000172A4ED1F3189BB2002B08D0DCAAAC4921
:1009A000D21852181278013B801880B2F3E7AB19C5
:1009B0005A7940421B79120280B21A4308238242BC
:1009C00037D167E0342B00D0D6E0009B012B00D05C
:1009D0007EE1032E00D07BE180220021520091A80D
:1009E000802700F0D8FE7F00182191ABD819FF3185
:1009F00002ABF21EC91800F0C5FE0423F619FF333E
:100A0000B6B29E4200D01BE116228B21FF3202AB10
:100A10009B18490002AA521810781B78000218434C
:100A20008C4B0700984200D824E1FF3BFF3B00932A
:100A30000933002546A8012143702B0AC370002307
:100A400002AA06320170291D1580857089B200291D
:100A500009D0DCAC7E4E6418A419247801391B1926
:100A60009BB289B2F3E7DCA97B4C49195B420C19B4
:100A70009BB22370794C1B0A0C192370784B0735F5
:100A8000C91817230B70A9B27F3300F0A0FD60E7EF
:100A90000323CEE76B782C79180031380A282ED939
:100AA000704A1568002D26D0009A012A25D106AC7F
:100AB00002AA13725681002147AE0C22200005962F
:100AC00000F069FEA660210004A8A8472623A58897
:100AD000FF339D4202D9A368B34207D0A268002A1F
:100AE00001D1002D04D12368DBB2A3E70E23A0E7D8
:100AF0000E2315009EE705239CE7052399E700F0E8
:100B00007FFD0B001B00CFFF61FF4300CFFF4900BB
:100B10005D0061FF7B009200009B012B00D0D7E0BD
:100B2000002E00D0D4E03000FFF7CAFE434243411C
:100B30002B713300009D7DE7009B012B00D0C7E0A7
:100B4000012E00D0C4E0002C00D0C1E0464B1B6851
:100B50001B685A0CD2B2002A02D1DB03DB0D01E084
:100B600080239B002B711B0A6B71FF23AB71FE3B33
:100B7000EB71002304255DE7009B012B00D0A7E06B
:100B8000022E00D8A4E02FE7009B012B00D09FE0AD
:100B90000027DEE6009B012B00D099E02C33F519ED
:100BA000FF339D4200DD73E791ABD819320047A9AE
:100BB00000F0E8FD0023AFB21D003BE7062E00D099
:100BC00086E02A4A06AB94461000190014C814C1E6
:100BD0006246013EF6B29019A919007A0979884255
:100BE00076D1002EF5D147AA03CB03C201233700EB
:100BF0000093082533001DE7009B012B68D1032ECD
:100C000066D116228B21FF3202AB9B18490002AA43
:100C1000521816781B7836021E430E4B9E4259D945
:100C2000F63BFF3B05E70020FFF74AFE002802D114
:100C300080220F4B1A6000F095FC00F0FDF947E0B0
:100C400001230027009302333D00F3E68CFCFFFFF5
:100C5000A7FDFFFFFF010000ACFDFFFFADFDFFFFA3
:100C6000AEFDFFFF70010020C00000209C200000AE
:100C7000B0000020274B1B681A68130AD2B29BB23F
:100C8000002A01D001339BB26402381984B29C421D
:100C900014D3019B002B0BD180221900520006A80F
:100CA00000F079FD06A91C4800F0CEF8012301935D
:100CB00091A9200000F0C8F8002804D001230027E3
:100CC00000930933C0E70123070000930300BBE74B
:100CD0000423AEE680226102891909025200002035
:100CE000FFF74AFD0500002C0ED10B4B9E420BD1A5
:100CF00021000520FFF770FD21002D1A0620FFF7C7
:100D00006BFDEDB22D1AEDB26D4246AB1D710023A5
:100D100001258FE6C0000020FF01000070B5002013
:100D2000FFF7CEFD431E98410624134D40422B6829
:100D300004401A68C021C03A0020FFF71DFD6B680F
:100D40001B78181AC0B2834203D12B681B68002B92
:100D500002D1002000F06EF9084B19681A004029F2
:100D600001D0002C03D000231360FFF7E9FD80229F
:100D70001A6000F061F970BDC0000020B0000020D2
:100D800082B06A460B4B0C4900930C4B01930C4B01
:100D90001A600C4A1160C0461A68120F0F2A04D05C
:100DA0001A680020120F0A2A01D01868C0B202B0D7
:100DB0007047C046B6E900001600008074010020AC
:100DC0000800104004001040094B0A4A0A491A6002
:100DD0000A4A1160C0461A68120F0F2A04D01A6816
:100DE0000020120F0A2A01D01868C0B27047C0460E
:100DF00008001040B6E80000150000800400104014
:100E000082B06A460B4B0C4900930C4B01930C4B80
:100E10001A600C4A1160C0461A68120F0F2A04D0DB
:100E20001A680020120F0A2A01D01868C0B202B056
:100E30007047C046B6EA0000170000807401002029
:100E40000800104004001040F0B50024304BC7B03B
:100E5000029406000394984255D8A14253D08022B0
:100E600006A8520000F08EFC2A4B2B4D0493FF2362
:100E70002A492B4A04AF7B602F600A60C0462A686B
:100E80000191120F0F2A03D02A68120F0A2A01D0EB
:100E90002C681C400294029B002B36D100F0DDFA36
:100EA0000400FFF76DFF0390039B002B02D1FFF7B7
:100EB0008BFF0290029B002B16D11A4A1A4904920A
:100EC000049A0198360416430496134A2F60016071
:100ED000C0462968090F0F2903D01168090F0A2994
:100EE00001D01368DBB20293039B002B07D1FFF7FD
:100EF00087FF0390039B002B01D0039B02932000EC
:100F000000F0AFFA01E004230293029847B0F0BD6D
:100F1000FF010000B6D70000080010400400104098
:100F200004000080B6D800000500008070B5050000
:100F300000F093FA0400102D04D803210E4A136820
:100F40008B4307E0202D07D803210B4A13688B43FE
:100F500002390B4313600AE0302D05D80321064AFD
:100F600013688B430139F4E7002000F063F8200098
:100F700000F077FA70BDC04630001040024A034BC3
:100F800011680B401360704700002240FFFFFFBF55
:100F9000024B18684000C00F7047C0460000224056
:100FA0001B2800D901BE034B8000C31818681960C4
:100FB0007047C04640000020F8B504000E00032929
:100FC00000D901BE1B2C00D901BE032725003D40DE
:100FD000BD400635AF40AE4000F03FFAA408054BD7
:100FE000A400E4182368BB431E43266000F039FACE
:100FF000F8BDC04600E400E01F2318401E3B8340BC
:10100000014A13607047C04600E100E01F2318400A
:101010001E3B8340014A13607047C04680E100E0F8
:101020001F2318401E3B8340014A13607047C0468F
:1010300080E200E001BE7047034A044913689BB296
:101040000B4313607047C0460CED00E00400FA0546
:1010500070B5802504002D02064BAC4205D95868B6
:1010600000F0F2F9044BE418F6E79868604300F0EA
:10107000EBF970BDC80000200080FFFF37B500F01D
:10108000FDF8002842D000F0E8F91C21204B214A4D
:101090001B6812689B008A400B40920F1833D340A4
:1010A00080251D491D4A04000868ED0110401C4AB6
:1010B0005A435219D20B013A0243192B01D8194B4A
:1010C0000EE0194D19481818EB18A0251A3B0078A6
:1010D0001B786D031B182A43FF2B00D9FF239B05A8
:1010E0001A43134D0A602B6830200193FFF71EFF4F
:1010F0008021104AC905136814200B431360FFF7C1
:10110000A7FF019B20002B6000F0ABF937BDC04664
:10111000080F0340280003400800224000F800C0E8
:1011200040420F000000D43FAA2000004DF3FF0F03
:101130003000104000002240F7B50500183D0400C3
:10114000182D46D80126244B3700EB409F4340D151
:1011500000F083F90190FFF71BFF0097002802D0F1
:10116000FFF70CFF009607271C4E1D4A33681D49E8
:10117000BB4333601C4BE3181B78DBB213601B4A84
:101180001368BB4313601A4B0A68E31818787F236F
:101190009A43034013430B60322000F055F9182C9A
:1011A0000ED033681C3CA408BB433C401C43346055
:1011B000322000F049F93368AD08BB431D43356068
:1011C000009B012B01D1FFF759FF019800F049F96D
:1011D00000E001BEF7BDC04611111101080F034028
:1011E0000C0F0340180F03404DF3FF0F100F034087
:1011F00034F3FF0F10B5034B1B7B584300F024F969
:1012000010BDC046C8000020144B1A78144BD1B250
:1012100001601B781B020B431A000360114B1B7803
:101220001B041343104A0360127812061343036031
:101230000E4B1A780E4BD1B241601B781B020B4348
:101240001A0043600B4B1B781B0413430A4A43608C
:1012500012781206134343607047C04678F2FF0FBE
:1012600079F2FF0F7AF2FF0F7BF2FF0F7CF2FF0F94
:101270007DF2FF0F7EF2FF0F7FF2FF0F014B186828
:10128000C00F704700002240014A024B1A607047AD
:101290006588EDAC3800034070B5154D04002B682F
:1012A000144E9B0F9B07984215D0032233687C2075
:1012B000934333602B689B0F00D09030FFF79AFF69
:1012C00000F0CBF82B68A40F9B009B08A4071C43DD
:1012D0002C6000F0C6F803223368934319002B6892
:1012E0009A0F5342534101330B43336070BDC046E4
:1012F0000C0222401402224010B5040000F0ADF8A8
:101300000549064A0B681440054A134023430B6005
:101310000B6800F0A6F810BD10022240040404007F
:10132000FBFBFBFF042270B5224C2368134213D051
:1013300021490B6813420CD0204B5D6908681540A9
:10134000A84308605969914359619B68002B00D0FC
:1013500098470420FFF7D0FF80232268DB001A4261
:1013600015D015490A681A420DD0144A5569086803
:101370002B40984308605169114B0B405361D3686F
:10138000002B00D098478020C000FFF7B5FF8023D6
:101390002268DB021A420CD0074A12681A4204D0B3
:1013A000064B1B69002B00D098478020C002FFF736
:1013B000A3FF70BD10022240DC0000208C01002041
:1013C000FFFBFFFF034A044B116840020B40184328
:1013D0001060704708030440FFF1FFFF0823044931
:1013E000C0000A689A43D2B2034013430B607047AF
:1013F00000030440024B18680007C00F7047C04646
:1014000004030440034A044B116880010B40184355
:1014100010607047080004403FFEFFFF04230449AA
:1014200080000A689A43D2B2034013430B607047AE
:1014300000000440024B18684007C00F7047C046C8
:1014400004000440000000000230800803D0013096
:101450000238FCD1C046C0467047EFF3108072B628
:10146000704780F310887047084B094A1968136861
:101470000020994208D013680133412B00D10300AA
:101480000449C85C1360C0B27047C046C801002060
:10149000C4010020CD010020044B1868044B1A68D9
:1014A0001B68904200D24130C01A7047C80100202A
:1014B000C40100201F2204490B681340082BFBD0F5
:1014C000024B18607047C046080225404002254084
:1014D00070B504004518AC4204D02078FFF7EAFF4D
:1014E0000134F8E770BD0000134B70B51B68002B8A
:1014F00000D09847114B1B685B071CD520241F2088
:101500000F490B680133412B00D100230D4A1568A8
:101510000D4AAB4203D113680C4B1C7004E01268F7
:101520000B4DD2B2EA540B600A4B1B680342E8D160
:101530000422094B1A6070BD68010020CC0F2540C1
:10154000C8010020C401002040032540CC01002038
:10155000CD01002008032540C00F254010B5FFF73E
:1015600047F810BD10B5FFF751F810BDF8B50400ED
:101570000F0016000120002C28D0002926D00A25B3
:101580005D43FFF789FF002810D0FFF785FF0500B6
:10159000AE20FFF72FFEFFF77FFF8542F5D1390020
:1015A000AF4200D929003180651807E00120013DD4
:1015B000FFF74EFD002DE4D1102007E0AC4204D02F
:1015C000FFF752FF20700134F8E70020F8BD70B536
:1015D00001230C001500002805D0002903D0FFF7D7
:1015E00077FF00232C80180070BD000002B4714604
:1015F00049084900095C49008E4402BC7047C04656
:1016000003B47146490840004900095E49008E4410
:1016100003BC7047002243088B4274D303098B42FA
:101620005FD3030A8B4244D3030B8B4228D3030CB2
:101630008B420DD3FF22090212BA030C8B4202D354
:101640001212090265D0030B8B4219D300E0090A7C
:10165000C30B8B4201D3CB03C01A5241830B8B4285
:1016600001D38B03C01A5241430B8B4201D34B036E
:10167000C01A5241030B8B4201D30B03C01A5241D3
:10168000C30A8B4201D3CB02C01A5241830A8B4258
:1016900001D38B02C01A5241430A8B4201D34B0241
:1016A000C01A5241030A8B4201D30B02C01A5241A5
:1016B000CDD2C3098B4201D3CB01C01A5241830959
:1016C0008B4201D38B01C01A524143098B4201D393
:1016D0004B01C01A524103098B4201D30B01C01ABE
:1016E0005241C3088B4201D3CB00C01A5241830838
:1016F0008B4201D38B00C01A524143088B4201D365
:101700004B00C01A5241411A00D2014652411046C4
:101710007047FFE701B5002000F006F802BDC046A3
:101720000029F7D076E770477047C046014B18682C
:101730007047C046400100200E4B70B500251E00CA
:101740000D4CE41AA410A54204D0AB00F3589847FE
:101750000135F8E700F0D0FC084B00251E00084CCE
:10176000E41AA410A54204D0AB00F3589847013501
:10177000F8E770BD042100000421000004210000EE
:101780000C210000002310B59A4203D0CC5CC45455
:101790000133F9E710BD03008218934202D019709B
:1017A0000133FAE77047000030B59BB00091049117
:1017B00008496D4602910591012182244942E9813F
:1017C000A4006946AC8100F075F80023009A1370FC
:1017D0001BB030BDFFFFFF7F10B513000A000100F2
:1017E00002480068FFF7E0FF10BDC046400100203E
:1017F000F0B58E6885B007000C00039201939E42FD
:1018000043D890238A89DB001A423ED00325096918
:10181000236801985B1A029363695D43EB0F5D19BE
:10182000029B6D1001331B18AB4200D91D005305FC
:1018300010D52900380000F037FB061E14D0029A9C
:101840002169FFF79FFFA289194B134080221343A0
:10185000A38112E02A00380000F086FB061E0CD19E
:101860002169380000F0D4FA0C23402201203B60AB
:10187000A38940421343A38117E0029B2661F61817
:1018800026606561019EED1AA560019BB34200D2FE
:101890001E0032000399206800F0A5FA0020A3681A
:1018A0009B1BA36023689E19266005B0F0BDC0464F
:1018B0007FFBFFFFF0B59FB0029005938B890F006F
:1018C00016001B0610D50B69002B0DD1402100F02E
:1018D000EBFA38603861002804D10C23029A0138F1
:1018E0001360D8E040237B61002306AD6B61203399
:1018F0006B761033AB7634002378002B03D1A31B17
:10190000049312D003E0252BF9D00134F4E7A31B94
:10191000320039000298FFF76BFF431C00D1B4E09E
:101920006A69049B944663446B612378002B00D161
:10193000ABE00122002352426A6002A954325218DD
:1019400001342B60EB60AB601370AB65534E2178B4
:101950000522300000F03CFA002807D00123801B4C
:1019600083402A68013413432B60EFE72B68DA06C3
:1019700004D55322202102A8121811701A0704D589
:1019800053222B2102A81218117022782A2A03D080
:10199000099B00200A210EE0059A111D126805918D
:1019A000002A01DB099204E05242EA60022213435A
:1019B0002B6001340BE02278303A092A04D84B43DB
:1019C00001349B180120F6E7002800D00993237802
:1019D0002E2B1ED163782A2B0AD1059B02341A1DA7
:1019E0001B680592002B01DA01235B42079310E08C
:1019F00000230A201A0001346B602178303909294C
:101A000004D84243013452180123F6E7002B00D0DA
:101A10000792234E21780322300000F0D9F90028E4
:101A200006D04023801B83402A68013413432B6077
:101A3000217806221B48661C297600F0C9F9002887
:101A400012D0194B002B06D10722059B0733934375
:101A50000833059314E005AB00933A00134B2900BB
:101A6000029800E000BF07E005AB00933A000F4B7F
:101A70002900029800F08AF80390039B013304D0F8
:101A80006B69039A9B186B6135E7BB890B985B0602
:101A900001D5012040421FB0F0BDC046C320000068
:101AA000C9200000CD20000000000000F117000058
:101AB000F7B5170001938A680B6900900C009342F8
:101AC00000DA130022003B6043321278002A01D072
:101AD00001333B6023689B0602D53B6802333B60C1
:101AE000062523681D401ED0230043331B785A1E51
:101AF0009341226892061CD53020E11843310870CA
:101B000021005A1C45310978A21843320233117062
:101B10000FE022000123193201990098089EB04776
:101B2000431C0ED00135E3683A689B1A9D42F0DBF6
:101B3000DAE72200019943320098089DA847431C28
:101B400002D10120404220E006232068E1683A6883
:101B500003400025042B03D18D1AEB43DB171D40F6
:101B6000A3682269934201DD9B1AED180027BD424C
:101B70000AD0220001231A3201990098089EB0472A
:101B8000431CDED00137F2E70020FEBDF0B58BB07C
:101B900006920A0043320793059004920A7E0C00D5
:101BA000109B6E2A00D1ABE011D8632A22D009D84D
:101BB000002A00D1B5E0582A00D0C5E045310A70AE
:101BC000814A4FE0642A1DD0692A1BD0BCE0732AE9
:101BD00000D1AAE009D86F2A29D0702A00D0B3E03A
:101BE000202209680A43226037E0752A1FD0782A2C
:101BF00033D0A9E00E001A684236111D196013682F
:101C00003370A4E021681A68080606D4490604D592
:101C1000111D19600023D55E02E0111D19601568C1
:101C2000002D3BDA2D23049A6D42137036E02168B3
:101C30001A68080606D4490604D51568111D1960EE
:101C4000ADB202E0111D196015685F4B227E03934F
:101C500008276F2A1DD00A271BE022007821453271
:101C600011705A4A19680392081D226818600D689D
:101C7000100602D4500600D5ADB2D30702D52023FA
:101C80001A4322601027002D03D1202322689A4393
:101C900022602300002243331A7002E00A274A4BD5
:101CA00003936368A360002B09DB0422216891433E
:101CB0002160002D05D1049E002B11D07BE0002D6A
:101CC00079D0049E28003900FFF72AFD039B013ECE
:101CD0005B5C280033703900FFF79CFC051EF1D1D6
:101CE000082F09D12368DB0706D563682269934270
:101CF00002DC3023013E3370049B9B1B23612BE0ED
:101D000009681A68080607D4490605D5111D196027
:101D10001368A28A1A8004E0111D196013686269B1
:101D20001A600023049E236116E01A68111D1960D1
:101D3000166800216268300000F04AF8002801D0DF
:101D4000801B6060636803E0260042363270012326
:101D500023610023049A1370079B09AA00932100B2
:101D6000069B0598FFF7A4FE431C02D101204042C8
:101D700027E02369320006990598079DA847431C70
:101D8000F4D0236800259B070FD4099BE068984294
:101D900017DA180015E02200012319320699059878
:101DA000079EB047431CE1D00135E368099A9B1AAE
:101DB0009D42F0DBE9E72600039B42361B78337037
:101DC0008EE70BB0F0BDC046D4200000E520000037
:101DD000C9B28218904204D003788B4202D00130FD
:101DE000F8E70020704710B5884202D98B18984256
:101DF00001D3002305E09B1A013A08D3995C815472
:101E0000FAE7934203D0CC5CC4540133F9E710BD28
:101E100070B50500002944D00C1F2368002B00DAA0
:101E2000E418280000F0D8F81E4A13681100002BAF
:101E300002D16360146031E0A3420DD92268A0187A
:101E4000834203D118685B688218226063600C606B
:101E500024E0A24203D813005A68002AF9D11E6870
:101E60009819A0420BD12168711858181960824244
:101E700014D110685268411819605A600EE0A042EF
:101E800002D90C232B6009E021686018824203D13B
:101E9000106852684118216062605C60280000F0A0
:101EA0009CF870BDA8010020032370B5CD1C9D4394
:101EB000083506000C2D01D20C2501E0002D01DBB8
:101EC000A94202D90C23336048E0300000F084F8C6
:101ED000234B1C681A002100002913D00B685B1BE0
:101EE0000DD40B2B02D90B60CC181EE08C4202D112
:101EF000636813601AE04B6863600C0016E00C0026
:101F00004968E9E7174C2368002B03D1300000F043
:101F100051F820602900300000F04CF8431C18D024
:101F20000323C41C9C43A0420DD12560300000F067
:101F300054F8200007220B30231D9043C31A0ED003
:101F40005A42E2500BE0211A300000F033F8431CF3
:101F5000EBD10C233000336000F03FF8002070BD5F
:101F6000A8010020A4010020F8B506000C0015000F
:101F7000002904D11100FFF797FF040018E0002AA0
:101F800003D1FFF745FF2C0012E000F027F885424F
:101F90000ED929003000FFF787FF071E07D0210068
:101FA0002A00FFF7EFFB21003000FFF731FF3C0074
:101FB0002000F8BD002370B5064C05000800236022
:101FC000FEF7A4FA431C03D12368002B00D02B603A
:101FD00070BDC04610020020704770470B1F1A6882
:101FE000101F002A04DA891804390B68D018043845
:101FF00070470000002200002A00000000000000DE
:10200000F7FF7018B2C0300154144A1378184B10FF
:102010003C57F905F00038200020D80E2B053B6115
:102020000023E023FDC2F7FF7018B2C03001541541
:102030004A1D78184B1AF917F0000020D80C2D090A
:10204000626F6F746C6F6164657220737461727417
:102050000D0A0054686520626F6172642069732004
:102060006E6F74206163746976617465642C20708E
:102070006C6561736520616374697661746520695C
:102080007420776974682074686520616374697668
:10209000652E63796163640D0A000000B5116A253D
:1020A000003C0101D91F5DC38D2AEEDBC9B9AA9B93
:1020B0008E82766B60564D443B332C241D17100ADC
:1020C000044300232D302B2000686C4C00656667AC
:1020D000454647003031323334353637383941429E
:1020E0004344454600303132333435363738396170
:1020F0006263646566000000F8B5C046F8BC08BCC1
:102100009E4670472901000089050000F8B5C046C9
:10211000F8BC08BC9E467047010100003021000059
:10212000B800002090000000D00000000000000077
:102130000000000018020020F41F0000F81F00003B
:10214000010000000000E02EC05D0000180000004B
:1021500000366E01040404000000000000000000CE
:10216000000000000000000000000000000000006F
:102170000000000000000000C1200000000000007E
:10218000000000000000000000000000000000004F
:10219000000000000000000000000000000000003F
:1021A000000000000000000000000000000000002F
:1021B0000000000000000000E0000020000000001F
:1021C000000000000000000000000000000000000F
:1021D00000000000000000000000000000000000FF
:1021E00000000000000000000000000000000000EF
:1021F00000000000000000000000000000000000DF
:102200000040002011220000C55D0000C55D0000F7
:1022100080B5044B00AF83F3088803F0A9FE03F0F8
:10222000F7FDC0460040002070B572B60024414B57
:10223000414A1C60414BC7211A60414B414A1C6016
:10224000414B49001C60414B20251C600523136055
:102250003F4A11603F4A136012223F4B1A6003F05D
:1022600075FE302004F09AF9E8223C4B52011A60C6
:102270003B493C4B3C481960C021890001603B4808
:1022800018603B4801603B493B4819603B490A6084
:102290003B491960F821490101603A4818603A4801
:1022A00004603A4818603A4802603A4A0D201A60C1
:1022B000394A1160394A3A491A604522394B1D6042
:1022C000394B1A60394B033A1A60394B013A1A609C
:1022D000384B06321A60384B013A1A60374B033AD2
:1022E0001A60374B01321A60364B043A1A6004F018
:1022F0009BF80D2004F0C4F88020334BC0051C600F
:1023000003F03EFE0322314B01201A608022304B45
:1023100012061A6008222F4B1A602F4B1D6000F026
:10232000A7FC62B604F0DEF92C49042004F002FA9E
:1023300070BDC04600030240FF0F000000040240D1
:102340000803044000040440180304400003044050
:1023500008040440180404403000104014030140F5
:1023600045FF0080000001400803014042FF00805B
:102370000403014041FF0080100301400C030140B1
:1023800043FF008044FF00800003014040FF0080C5
:102390001803014046FF00801C03014047FF0080F6
:1023A00079620000280003404801014030010140EB
:1023B0002C010140100101400C01014008010140C5
:1023C00004010140000101400C0222403000304075
:1023D00000003A4000033A40000E3F40612C0000EC
:1023E00010B5064C2378002B07D1054B002B02D0EB
:1023F000044800E000BF0123237010BD400100200D
:1024000000000000009F0000044B10B5002B03D01B
:102410000349044800E000BF10BDC04600000000B2
:1024200044010020009F000010B50649064801F055
:1024300059FE0021080001F0D1F90122034B1A7066
:1024400010BDC046109F0000880400209C010020A1
:10245000054B10B5DB6A98470449054801F042FE78
:102460000222044B1A7010BDE0A000001E9F000065
:10247000880400209C010020F7B5134D134F144E23
:102480003A8031800A000C000100280007F0B8FBF8
:10249000A0200021C001295501F0A0F90D4BDB6AF5
:1024A00098470022BB5E0C4C0021725E2000009217
:1024B0000A492A0001F0E0FD2000094901F01EFE52
:1024C0000222084B1A70F7BD7E0100205C0100203B
:1024D0007C010020E0A00000880400202F9F000065
:1024E000619F00009C010020F0B58BB001F018FD49
:1024F00001230024E121224A5B4249020292009317
:10250000204A0194204801F09FFA204B20481C806B
:10251000204B214E1C80214B01250360204B436042
:10252000204B836033689847F3681F4898471F4BD8
:102530002200089308230293013B2800F7690093C7
:1025400005212300079406940594049503940195AE
:10255000B84708230722019321002B002800B66901
:10256000099508940794069405950494039402949D
:102570000094B04702220E4B1A700BB0F0BDC0465B
:10258000204E000022080000880400209E01002048
:10259000600100205C010020E0A000002924000070
:1025A000512400007924000000A1BC33B80B0000C6
:1025B0009C0100202E4BF7B51B782E4D012B4ED0E1
:1025C000022B04D0002B46D102F054FA43E0FA204B
:1025D000800000F003FB284E284C3388284F01333D
:1025E0003900284A2000338003F0D8FB200007F090
:1025F0002FFC0023F25E244E2018310003F0CEFBA6
:10260000200007F025FC3900204A201803F0C6FB03
:10261000200007F01DFC1E4B310000229A5E20189E
:1026200003F0BCFBA0200021C00301F0D7F820007C
:1026300007F00EFC174903002200174801F01CFDAB
:10264000200007F005FCAB6AC1B220000193984757
:102650000023074A13706B6E01939847F7BD0F492B
:102660000D4801F04BFD6B6B002001939847EFE79D
:102670009C010020E0A000009E010020A00100209D
:10268000809F00007A9F0000839F0000869F0000CB
:102690005C0100208F9F000088040020B39F000091
:1026A000C308194A1B02F0B59D18184A03269C1846
:1026B000174A9B1807221040063A8240082903D087
:1026C000092902D1310000E002217043072686402B
:1026D0002F68B7430E008640380030432860D0434F
:1026E000022903D119680A431A6008E01D680540F1
:1026F0001D60002903D123681A43226002E0236889
:1027000018402060F0BDC046080004401800044096
:1027100000000440F8B5072100240120194B1A4E8F
:102720001A681A4B1A601A4B1A78944228DA335DE9
:10273000184FDD082D02ED192F680B40BC4607002D
:102740009F4063461F4218D001212120FFF7A8FFB8
:10275000114B1B78002B03D002211920FFF7A0FF9B
:10276000335D0E4A9B009B5898472B681F432F6090
:1027700002F0C8F90A4B186002E0013464B2D4E7F1
:10278000F8BDC04618E000E0C1020020BC020020F5
:10279000000300201000044008030020C0010020B6
:1027A0000C03002007B5684603F0CCFF0098019B9E
:1027B000010B000589B2184303B000BDF0B58FB01E
:1027C000FFF7F0FF0E04002534002B0000196941CB
:1027D000320C801A994100900191019B754E1C04A6
:1027E0002200009BB4461B0C1A431000724A734F20
:1027F000821813093340724E120132401343714A5A
:10280000714E9B189A083240704E9B003340134320
:102810006F4A704E9B185A085B0032403B4013438E
:102820006D4A6E4C9B186E4A1E0A1B0223401640CE
:102830001E432B0065460695614D66490795624D1E
:102840000891AC46614D099766495F183F780AA91F
:102850005F540133102BF7D10B990A9B09BA0391EE
:102860000C991BBA09BA04910D9909BA0591002176
:1028700002919E4200D099E0F02600995A4B0F0138
:1028800036033E405949034033435B181F021B0A7D
:102890001A403C40564B1443E418E243634692000E
:1028A000A40815401C40534B2C43E218079B14010D
:1028B0001C40D34306991B090B404F4923435B1827
:1028C0003E495F008C4609995B080F4008993E4ECF
:1028D0000B401F43039B3A4D364A3E4C9F4265D105
:1028E000009B00991F04F0231B051F40434B03402E
:1028F0001F43F0230B4042493B435B181F02DB435D
:1029000036491B0A0F4036490B401F433D4B2F49A8
:10291000FF18FB433F091B012B4017401F433A4B55
:10292000FF18FF43BB08BF000F40334037493B430C
:102930005B1861465F000F405B08049923403B43EE
:102940008B4233D1030032490B401900009B18021F
:10295000F0231B01184001434F00C9436346490857
:102960001F4021402B4B0F43FF18FB433F091B0126
:102970001D403A40284B2A43D218184913021940E7
:10298000D343174A1B0A1340244A0B439B18DB43CB
:102990000E4A98089B00134030401843204BC01843
:1029A000059BC01A4342584143B202936B46187AC2
:1029B0000FB0F0BD0F0F0F0F59C9947FAAAAAAAA92
:1029C000F0F0F0F04E384E0A33333333CCCCCCCC6D
:1029D000DC84235755555555247BDCA800FF00FFA8
:1029E000FF00FF00F0F7FF0FFFFFF0FF41BD4B3985
:1029F00046F6AC3FDAE94D414299797E0FFFFFF090
:102A00002DB1F6B2B2C3ED1B731F94F5DBAEE973C3
:102A1000FFF0FFFF38E47C2339DEC7D99A0FEC4181
:102A200000C1C62870B504000D00FFF7C7FE0028DE
:102A300000D1FEE729002000FFF732FE70BD000044
:102A400070B504000D00322802D0342809D014E0FB
:102A5000124B1A78002A10D000221A7001F0C6FA20
:102A600007E00F4B1A78002A07D000221A7001F0F5
:102A7000D7FA06212000FFF7D5FFE308094A1B0219
:102A80009B1807221440063AA2401968002D01D075
:102A90000A4301E091430A001A6070BD010300205F
:102AA000C0020020000004400723064A0340C0087B
:102AB000000280180268012098401040D840C0B23F
:102AC0007047C04604000440C308054A1B029B1817
:102AD00007221040063A824019680A431A6070477C
:102AE00010000440F8B505000F001400FFF766FE63
:102AF000002800D1FEE707262800FFF7E5FF0321A5
:102B00002E407600B140B440114AEB081B029B18DE
:102B10001A68A4B28A43002114430E4A1C60AB0019
:102B20009F500D4B0D481A78CCB2A24205D94C1CCF
:102B3000415CA94204D02100F6E7855401321A70A5
:102B40001B78012B02D1064801F0B6FBF8BDC04648
:102B50000C000440C001002000030020C10200203E
:102B600015270000F7B50022184D0400184F2878EB
:102B70000195D3B283421FD2511CBA5CA24201D04C
:102B80000A00F6E71349E20812025218072103254A
:102B9000214049008D401668AE431660FA185278FD
:102BA000FA540133DBB29842F8D80021019B013876
:102BB000094A1870A3009950019B1B78002B01D182
:102BC00001F08CFB2000FFF77FFFF7BD0003002022
:102BD000C10200200C000440C001002010B503F029
:102BE00065FC10BD10B501F08DFF10BD8021064AB7
:102BF00010B5136809060B431360082003F040FC6E
:102C000003F04CFF10BDC04600002540FF21124AD2
:102C100010B5136818208B4366390B43136096393F
:102C2000FFF700FF02211920FFF7FCFE002118200A
:102C3000FFF706FF01211920FFF702FF074C237859
:102C4000002B07D103F0BCFE01232370FFF7CEFF5A
:102C500003F04CFE10BDC0460003024008030020F4
:102C6000024A1368013313607047C0460C0300200A
:102C7000054A1368002803D0802109060B4301E0B0
:102C80005B005B081360704780033A400120704787
:102C900010B5002001F0C6FB10BD0000144B10B5AC
:102CA0001860144801F0D8FC002001F0BBFB0120A3
:102CB00001F04BFC0021080001F03EFE0421002041
:102CC00001F024FD0023190018001A0001F08EFC09
:102CD00009490A4801F00EFF09490A4801F00AFFB4
:102CE00009480A4901F006FF0020094B187010BD81
:102CF0002803002045310000952E000060040020CC
:102D0000B52E00004804002010030020D52E00003E
:102D10002403002010B501F0E7FAC31EDBB2020065
:102D20000020022B02D80630801AC0B210BD10B5A8
:102D300001F0B8FC10BD10B501F008FE00B210BDE6
:102D400007B56B46D8710733180001F0F3FA07BDD9
:102D5000002370B50C0010491A000500080001F0AE
:102D600045FC01F0CDFC0D4B012813D17F331C70C5
:102D70000B4801F075FD00222800210001F078FBCE
:102D8000084C094B2000196801F06AFF200001F08F
:102D900073FF70BD7833EAE701020000C806002027
:102DA00038070020600400205C04002010B50420D7
:102DB00001F020FB0220FFF711FF10BD10B501F05C
:102DC00089FB10BD37B5164B0424A8331D78123586
:102DD000EDB20F2809D8013C072806D8013C03288A
:102DE00003D8013C8442A4416442C021002349002D
:102DF0001A00080001F0FAFB00230A2229000093C0
:102E0000200001F081FD01F07BFBFA21054CC90097
:102E1000200001F025FF200001F02EFF37BDC04645
:102E2000C80600201003002070B50D00140001F04A
:102E300039FC280001F066F801F06EFB200006F076
:102E4000C3FD0022064B05F08BFF04F0E7FD054CA7
:102E50000100200001F004FF200001F00DFF70BD13
:102E600000408F404804002010B500F0ADFF10BDB9
:102E700010B500F0E5FF10BD10B500F077FF10BDF4
:102E800010B500F0ABFF10BD10B500F0CDFE033063
:102E900010BD0000002010B501F02CFA044B1B6897
:102EA000002B03D05B68002B00D0984710BDC046B4
:102EB00028030020002010B501F01CFA044B1B6809
:102EC000002B03D0DB68002B00D0984710BDC04614
:102ED00028030020002010B501F00CFA044B1B68F9
:102EE000002B04D09B69002B01D00020984710BD17
:102EF0002803002010B5002811D00A4A0123110030
:102F00001468A04206D39468A04203D2DB00CB1819
:102F1000187910BD01330832162BF1D1FEE71F20BE
:102F2000F7E7C04630A0000010B50A4B012807D1D2
:102F3000094A7F3311700948197001F091FC10BDE6
:102F40001A0077321278012AF9D1034A78331170C6
:102F5000F1E7C046C8060020BC000020380700206A
:102F60000023104970B51A000400080001F03EFB70
:102F7000002C07D00C4D2100280001F071FE280024
:102F800001F07AFE094B1B78002B06D0002001F0DF
:102F9000D3FA074801F074FA70BD064B1868800137
:102FA000F8E7C04642020000480400204104002027
:102FB000FFFFFF00440400200023022170B51A0027
:102FC0000400080001F012FB002C07D0094D21007D
:102FD000280001F045FE280001F04EFE064B1B784C
:102FE000002B03D0054801F05DFA70BD044B186852
:102FF0008001F8E74804002041040020FFFFFF00A3
:1030000044040020F7B5474C2378002B5BD0002503
:1030100000F081FF257000F080FF01F0F7FA040056
:10302000414801F019FDE3070DD5404801F0E6FDE8
:10303000280001F05FF93E4B1B68AB4203D01B68D0
:10304000AB4200D09847A3070DD53A4D280001F0B8
:10305000D5FD374F630637D53B68002B03D01B697E
:10306000002B00D0984723060CD5334801F0C6FD4D
:103070002F4B1B68002B05D09B69002B02D0E0056D
:10308000C00F9847A30511D501F02EF9042838D1B7
:10309000264801F0B3FD002001F02CF9244B1B68F9
:1030A000002B03D05B68002B00D09847A3060AD5FD
:1030B000204801F0A3FD1E4B1B68002B03D0DB68EA
:1030C000002B00D09847F7BD280001F097FD6B4614
:1030D0001A4ED91DFF22300001F06AFC184D28005D
:1030E00001F07CFC3B68002BBDD09F68002FBAD05C
:1030F00069460D230C223000EB56AA56C979B84711
:10310000B1E701F0F1F80528D0D10A4801F076FDC9
:10311000002001F0EFF8064B1B68002BC6D0DB68DF
:10312000C1E7C04624030020FFFF00006004002028
:103130002803002048040020100300204203002040
:103140002C030020012210B5024B1A70FFF75AFF22
:1031500010BDC046240300200C4B10B504001870AD
:10316000587000F017F8002C09D0E8203421C00076
:1031700000F02AFE4421064800F026FE10BDE8209B
:103180001421C00000F020FE2421F4E740030020B9
:1031900041070000012010B501F0A4FA044B187893
:1031A0005A78824202D05870FFF7D6FF10BDC04651
:1031B0004003002010B5012806D0002001F092FA4B
:1031C0000022034B5A7010BDFFF7E4FFFBE7C04637
:1031D00040030020F8B50C0016001D00FFF7EAFFC1
:1031E000200001F05FFA0020FFF7BAFE0120FFF790
:1031F000F5FC01F0B5FD070000243800210001F0C6
:10320000BBFD8C4201D1854201D8012406E001F0CA
:103210009DFB00B28642EFDA0028EDD0FFF7C6FD35
:103220002000F8BD70B50024FFF7B4FF002001F0C6
:1032300027F9250001263000FFF7D0FC01F086FBBE
:1032400003003340A34001341D43202CF3D101F08F
:10325000B9FD4519FFF7AAFD280070BD70B50A2811
:103260000DD8084BC0001818046845680120884034
:1032700006F0AAFB2B00220005F06CF970BD0024BB
:103280000025F3E7D89F0000F0B589B0150013AA18
:10329000127801910392212206A95218D27F049339
:1032A000059225220FAB1B885218009310AB1B8888
:1032B000D17F029311AB1F786A4A12AB06001B78CC
:1032C0001170002F00D1FF23674A1370002E04D025
:1032D000012E00D175E009B0F0BD300001F023F9F6
:1032E000624C0B22230098331E7023009C331D6018
:1032F00023000198A4331A70FFF7FCFD2300A533C7
:103300001870230070331E70009B5749DA002300A9
:1033100072331A802300564A74331A80230076339E
:103320001E7001222300574077331F702300097855
:10333000783319700399F223002900D11300220079
:1033400079321370230001227A3398341A70FFF710
:103350009FFC2078431E9841C0B2FFF72BFF20004E
:1033600001F02EFA434801F07BFA0822424906A8F0
:1033700006F046FC06A800F0DDFF404801F01CF80E
:10338000280006F051FB02000B0000203C4905F02C
:10339000E1F800223B4B05F0E3FC040002980D002D
:1033A00006F012FB02000B002000290005F0D8FCFB
:1033B000354B002205F0D4FC04F030FB334B186091
:1033C00089E7002001F0AFF86B46187A01F0B4F8F5
:1033D000264CEDB2230098331E702300A8331D70D5
:1033E000019A2B4B2900985C2300A9331870230005
:1033F000049AAA331A70FFF731FF264B264A04F0CD
:10340000BBFA431E98412300AB3318702300053DDF
:1034100070331E70012D21D8009B0B2B1ED823006A
:103420000C227C331A8023007E331F7023000E4A47
:103430007F3312781A702300039A80331A70059B29
:1034400081342370FFF7A6FE144801F0B9F909484A
:1034500001F006FA0D4B124A1A603CE72300009A6D
:103460007C33DFE741040020BC000020C8060020B8
:103470000418000038070020C09F0000FF01000072
:103480000000F03F0000204000408F404404002036
:10349000C89F000047613040E17A14AE6007002009
:1034A000FFFF0000F0B587B0050018000CAB170057
:1034B00004CB029119780EAB1E880FAB1B780093DA
:1034C00010AB1B78019313AB1B780393002D09D02D
:1034D000012D55D0029800F015FD504B149A1A603A
:1034E00007B0F0BD4E4CF600230098331D7023004A
:1034F0009C331A6023000B22A4331A70FFF7FAFCE6
:103500002300A53318702300A0331F6023007033FD
:103510001D70230072331E802300424A74331A80C8
:10352000230076331D700122230000997733514028
:1035300019700199F223002900D113002200793279
:103540001370230001227A3398341A70FFF7A0FB1E
:103550002078431E9841C0B2FFF72CFE200001F0F6
:103560002FF9314801F07CF90822304904A806F00F
:1035700047FB04A800F0DEFE2D4800F01DFFA9E780
:10358000274CD7B2230098331D702300A8331F7037
:10359000284B185C2300A93318702300AA33197034
:1035A0003900FFF75BFE244B244A04F0E5F9431E83
:1035B00098412300AB3318702300053F70331D7012
:1035C000012F26D80B2E24D823000C227C331A80FE
:1035D0002300009A7E331A702300194A7F33127831
:1035E0001A702300019A80331A702300039A8133E2
:1035F00098341A70FFF74CFB2078431E9841C0B2F4
:10360000FFF7D8FD200001F0DBF8074801F028F9AA
:1036100060E7034B7C331E80DAE7C0465C04002081
:10362000C80600200418000038070020C09F0000D2
:10363000FF010000C89F000047613040E17A14AEEE
:10364000BC000020F0B50E0085B0002804D0012891
:1036500048D0002005B0F0BD594F3B0075331878B5
:103660003B0072331B88C008C01806F0ADF93B0060
:1036700077331B780022002B2FD0524B04F000FC34
:10368000040030000D0006F09FF902000B0020003E
:10369000290004F0F5FB3B0079331B780022022B54
:1036A0001DD0002304F0ECFB0022474B05F058FB33
:1036B0009C37040038680D0006F0B6F902000B00D4
:1036C0002000290004F046FF0022404B05F048FB93
:1036D00003F00EFF04F0A2F9BCE70023CEE780233D
:1036E000DB05DFE7364C76002300A8331D78230086
:1036F000A93318782900FFF7B1FD2300009001914C
:103700007C33188806F060F90022314B04F0B8FBD6
:10371000009A019B05F024FB230002900391803363
:10372000701B1E7823007E331A780730B60080198C
:1037300014238000012A00D00023C01A06F044F9A7
:10374000AB34060020780F00431E98414000281A31
:10375000800006F039F902000B003000390004F057
:10376000F9FE03F0A5FD164B0400AA3318780323D5
:103770000D001840043006F027F922002B0005F058
:10378000EFFA0022002304000D0004F0EBF80028FB
:1037900001D1002400250022200029000A4B04F05A
:1037A0006FFB009A019B05F0DBFA029A039B04F081
:1037B00067FB084A084B04F063FB03F005FE89E74A
:1037C000C80600200000F03F0000204000408F406D
:1037D000000011402B8716D9CEF7EF3F70B50400DB
:1037E0000D001A200621FFF71DF900211A20FFF70E
:1037F00027F90120FFF7F2F90A4E300003F043FCED
:10380000300003F008FD220230000021120A03F00C
:10381000CCFC300003F089FC002D02D02800FFF71B
:10382000DDF970BD7404002010B5064C5223072248
:103830000121200003F0A2FC2000034A034903F009
:10384000CFFA10BD74040020B80000206970000099
:1038500010B503681B6A984710BD00001023822230
:10386000C35652005343074A0020D218FE329188B3
:103870005388994205D0581A994202D35B1A581CB2
:10388000FF307047C00400201022822382565B0064
:103890005A43064B9B181900FE318A884988914289
:1038A00001D0985C704701204042FBE7C004002033
:1038B0001022822170B5825649004A430B4B040006
:1038C0009A181500FE35A8886E8886420AD0461CD4
:1038D000AE80105C1022A25651435B18FE331A7959
:1038E0009A8070BD01204042FBE7C046C004002022
:1038F0007047000070B5FF2503F030F8002813D0A2
:103900000B4E3400FE346388A28801332B4093426F
:1039100007D003F0D7F86388F05401332B4063805D
:10392000EAE703F0CFF8E7E70422024B1A6070BD24
:10393000C0040020C00F254070B58125FF26AD00D2
:1039400003F01AF9002814D00C4C0D4A635BA25AFC
:1039500001333340934209D003F0A6F9635BE218C8
:103960000133FF32334050716353E9E703F09CF9B0
:10397000E6E70422034B1A6070BDC046C004002075
:1039800006020000C00F2840030010B51B7C080091
:103990005BB2002B03D102F0F9FF012010BD03F050
:1039A00003F9FAE7F8B5060015000C008F18A742D6
:1039B0000BD01023F3562078002B03D102F0E6FF42
:1039C0000134F4E703F0F0F8FAE72800F8BD10B589
:1039D00004001C2103F00BFA200010BD10238221EB
:1039E00010B50024C35649004B430E4AD318FE338A
:1039F0009C801023C356594310235218FE32548022
:103A0000C356A34206D102F0B1FF02F0CDFF002859
:103A1000FBD110BD03F0B8F803F0D4F80028FBD1B7
:103A2000F7E7C046C004002000234360C360FA23C8
:103A30009B008360034B0833036001235B420174E6
:103A40000383704750A10000F7B5050010242C57E0
:103A500008000899002C05D1002B03DA002907DBA8
:103A60002000FEBD0024182BFAD11929F8D12C749E
:103A7000354B00212B8313061B0F160A022B03D094
:103A80003031002B00D11039541E0722A0231440DE
:103A90000C431B03234301930F23013E1E4080234D
:103AA00068611B061E4304F0AFF9011C274804F0AF
:103AB0009FF8274904F09CF805F0DCFF0022254B15
:103AC00004F0DEF9244B002205F0B6FB03F0A6FF5C
:103AD0001023EB560702002B25D1FFF797F81F4B59
:103AE000019A1F601E4B1A601E4B1E601E4B1C600D
:103AF0001E4B1E60102382210020EB5649004B43D1
:103B00001B4AD318FE3398801023EB5659431023D9
:103B10005218FE325080EB56834211D1154802F004
:103B200003FF01249CE703F06DFA134B019A1F6019
:103B3000124B1A60124B1E60124B1C60124BD8E7DE
:103B4000124802F0FFFFECE718190000001B374C89
:103B5000000050410000E03F0000F03F1003014032
:103B60004800254000032540440025400002254030
:103B7000C0040020F53800001C0301404800284024
:103B80000003284044002840000228403939000042
:103B900070B50B4C00212000FFF746FF094E0A4D7F
:103BA00032002900200003F01BF9084C01212000FD
:103BB000FFF73AFF32002900200003F011F970BD31
:103BC00088040020B8000020F1380000A404002080
:103BD00037B50125002401950095002306222321F5
:103BE000094800F0C3F92A0023002721074801945F
:103BF000009400F0BBF92A00230026210448019418
:103C0000009400F0B3F937BD2C070020D406002043
:103C1000E006002010B5030003220121014800F056
:103C2000AEF910BDE00600200220704737B5002431
:103C3000114D06212878FEF7F5FE142000F015FF3F
:103C40002300280006222F210194009400F08EF911
:103C5000282000F00AFF0123062228002F210193CB
:103C60000094230000F082F9142000F0FEFE287872
:103C70002100FEF7D7FE37BDC806002010B5034867
:103C800000F085F90128FAD010BDC046D406002006
:103C900070B572B60A4C0021200000F074F9094D8D
:103CA000C021280000F082F90021280000F07EF9F0
:103CB0000121200000F067F9FFF7E0FF62B670BD58
:103CC0002C07002004070020F7B515000C00019018
:103CD00000F016FB0E4E0021300000F054F96B4648
:103CE0000C4F9988380000F061F96519AC4209D190
:103CF0000121300000F047F9019B842B01D0FFF730
:103D0000BDFFF7BD2178380000F050F90134EDE730
:103D10002C07002004070020F8B5060015000C0051
:103D200000F0EEFA0F4F0021380000F02CF9B1B28C
:103D30000D4E6519300000F039F90021300000F017
:103D400035F9AC4206D13800012100F01CF9FFF72B
:103D500095FFF8BD0021300000F028F920700134F3
:103D6000EFE7C0462C07002004070020F7B5050048
:103D70000C00019200F0C4FA114F0021380000F04D
:103D800002F9104E0D21300000F010F9290A300020
:103D900000F00CF9E9B2300000F008F9019BE518D9
:103DA000AC4206D13800012100F0EDF8FFF766FFC4
:103DB000F7BD2178300000F0F9F80134F0E7C04693
:103DC0002C0700200407002007B56B46D971073384
:103DD00001221900FFF7CAFF07BD0000F7B5050073
:103DE0000C00019200F08CFA134F0021380000F013
:103DF000CAF8124E1D21300000F0D8F8290A300010
:103E000000F0D4F8E9B2300000F0D0F80021300022
:103E100000F0CCF8019BE518AC4206D13800012136
:103E200000F0B1F8FFF72AFFF7BD0021300000F0E5
:103E3000BDF820700134EFE72C07002004070020B4
:103E400013B56B46DC1D01222100FFF7C7FF207868
:103E500016BD0000F7B515000C00019000F050FAF7
:103E60000F4F0021380000F08EF80E4E0E2130006A
:103E700000F09CF86B463000998800F097F86519BF
:103E8000AC4206D13800012100F07DF8FFF7F6FEC4
:103E9000F7BD2178300000F089F80134F0E7C04622
:103EA0002C07002004070020F7B515000C00019036
:103EB00000F026FA114F0021380000F064F8104E8F
:103EC0001E21300000F072F86B463000998800F037
:103ED0006DF80021300000F069F86519AC4206D198
:103EE0003800012100F04FF8FFF7C8FEF7BD0021B0
:103EF000300000F05BF820700134EFE72C07002061
:103F00000407002010B5042100F000FC10BD0220C1
:103F100070477047704772B6704762B670470000CE
:103F200010B500F039F802F0F7FF00F02DFFFEF7B2
:103F300059FE0D4B062118601A20FEF773FD012172
:103F40001A20FEF77DFD01211B20FEF76BFDFFF718
:103F50003FFE0A20FEF742FEFFF768FE0A20FEF74A
:103F60003DFE00F057FA10BD0C03002037B506AC3B
:103F70002478079D0094019502F0FCFE37BD10B532
:103F800002F0DCFE10BD10B502F0E0FE10BD10B571
:103F900002F000FF10BD000010B502F017FC002277
:103FA000014B1A6010BDC0460003014010B50C0063
:103FB00002F094FC0028FBD12000F62402F080FCE3
:103FC000FF3402F075FC002803D002F06BFC80B2D5
:103FD00006E0013C002CF4D1024801F0CDFE02487D
:103FE00010BDC04684A10000FFFF000010B50021F5
:103FF0003220FEF717FD074A074913680B4013608C
:1040000001F057FF2021054A13688B43136001F02C
:1040100054FF10BD00060240FFF7FFFF00002040E4
:1040200010B500213420FEF7FDFC074A074913684C
:104030000B40136001F03DFF4021054A13688B439C
:10404000136001F03AFF10BD00060240FFFFF7FFCA
:10405000000020409A4200D28854704770B5050095
:104060000C00081E07D005F0F3FE2B6802002100AB
:104070002800DB68984770BD0EB40022F0B596B0FA
:104080001BAB80CB164E04930593009305003B00B9
:104090001100300001F0BEFB431C039306AC3F2827
:1040A00003D9180002F0ABFE0400049B210030008D
:1040B000039A00933B0001F0ADFB2B680600020061
:1040C00021002800DB6898473F2E02D9200002F02B
:1040D00092FE300016B0F0BC08BC03B01847C046D2
:1040E0005540000010B5FFF7B9FF10BD10B50249EB
:1040F000FFF7B4FF10BDC0465FA2000070B504001A
:10410000FFF7ACFF05002000FFF7F0FF401970BD7E
:1041100010B50400FEF766FDE060236820005B69CF
:104120009847002808DAFEF75DFDE368C01AA36827
:104130009842F2D30120404210BDF8B506000D00B0
:1041400017000024BC4207D03000FFF7E1FF002831
:1041500002DB28550134F5E72000F8BD70B50D00ED
:104160000749040000F060F82800FFF7D1FF00289D
:1041700004DBC1B2200000F083F8F5E7200070BD39
:1041800061A2000010B504000068002801D005F00D
:104190002DFD002323606360A36010BD0F23103149
:1041A00070B59943040000684E1E05F0E3FD051E3E
:1041B0000CD0A368B3420AD26068B04204D2321A6B
:1041C0000021281805F025FD012060C470BD0023E2
:1041D0008355A660F8E7036810B50400002B04D0EF
:1041E00043688B4201D3012010BD2000FFF7D6FFAA
:1041F0000028F9D0A368002BF5D122681370F2E7EC
:1042000070B50E00110004001500FFF7E4FF002850
:1042100004D12000FFF7B6FF200070BD31002068F8
:10422000A56005F00DFEF7E7002370B504000D0052
:10423000036043608360994207D0080005F008FEE0
:10424000290002002000FFF7DBFF200070BDF8B559
:1042500004000E1E02D100273800F8BD0127002AF5
:10426000FAD08368D5182900FFF7B5FF0028F2D0EF
:104270002368A2683100981805F0E2FDA560EBE71D
:1042800007B56B466A461971002301A953710122D3
:10429000FFF7DDFF0EBD000010B5040001F009FEC0
:1042A000C021044AA40113688B432343136001F027
:1042B00004FE10BD04E400E010B51024044B1C60A3
:1042C000044B18650220FFF7E7FF034B1C6010BD8D
:1042D00080E100E00000002000E100E01022014B3E
:1042E0001A60704780E100E0014B1878C0B2704757
:1042F0007D070020014B18707047C0467D070020E5
:1043000010B5074B1A78002A02D01B78062B03D170
:10431000FFF7BEFCFFF7FDFDFFF7B0FC10BDC04688
:104320007D07002010B50A0001000020FFF792FD74
:1043300010BD000070B50D4B05001C78002C03D09B
:10434000012C0CD0002070BDD823DB00E018295DC3
:1043500080B20134FFF738FD082CF5D1F2E701787F
:10436000E820C000FFF730FDECE7C0467E070020E4
:1043700007B5064B01A91B7840BA0880002B03D172
:1043800002220348FFF7F2FC07BDC0467E0700206B
:10439000BC06000007B5064B01A91B7840BA08808F
:1043A000002B03D102220348FFF7E0FC07BDC04603
:1043B0007E070020BE06000010B50C4B04001B78E1
:1043C000002B11D1D720C000FFF73AFD0123210AAD
:1043D000984319400143D720C9B2C000FFF7F4FC4D
:1043E0000348E1B2FFF7F0FC10BDC0467E07002095
:1043F000B906000013B501AC2070FFF78BFD012258
:1044000021008420FFF760FC0022014B1A7013BDCD
:104410007D07002010B50420FFF7ECFF0220FEF717
:10442000DDFB10BD07B56B460122D871D91D802078
:10443000FFF74AFC6B46DA79034B002A02D10132BE
:104440001A7007BD0222FBE77D07002007B5042292
:10445000064B01A91A70030C0B708870030A013A0D
:1044600083204B70FFF730FC07BDC0467D0700205E
:1044700010B51400FFF756FF2000FFF7E7FF10BD4F
:1044800007B50522064B01A91A70030C0B70887042
:10449000030A023A82204B70FFF716FC07BDC046A4
:1044A0007D07002013B505220400084B962108481B
:1044B0001A70FFF789FC01A9230C0B700322230A51
:1044C00082204B708C70FFF7FFFB13BD7D0700202F
:1044D000AC08000007B56A46030C1370030A53705A
:1044E0000B0C49BA9070D3709180942006226946D3
:1044F000FFF7EAFB0622014B1A7007BD7D0700207B
:10450000002210B51100C520FFF7DEFB0722014B8A
:104510001A7010BD7D070020002210B51100D120B7
:10452000FFF7D2FB10BD07B56B460122D91D0870FD
:104530009F20FFF7C9FB07BD07B56B460122D91DB8
:104540000870A020FFF7C0FB07BD07B56B4601222E
:10455000D91D08709620FFF7B7FB07BD07B501A965
:10456000087001228920FFF7AFFB07BD07B50F4B8D
:1045700001A9984206D90E4B0B8002229820FFF722
:10458000A3FB07BD0B4B984201D90B4BF4E70B4B38
:10459000984201D90A4BEFE70A4B984201D90A4BDE
:1045A000EAE70A4B9842E8D9094BE5E700E9A43568
:1045B000E1E9FFFF80F8A932D7D8FFFF8044E52D5D
:1045C000C1C5FFFF000B6B1B7581FFFF40FC541939
:1045D0006B6F000013B501AC20706170A2702100F8
:1045E00004229520E370FFF76FFB13BD13B56C46F3
:1045F00052BAA280082240BA49BA208061805BBAD0
:1046000069461000E380FFF75FFB13BD07B5022288
:10461000122001A9FFF780FB6B466A461B7950798F
:104620001B0218430EBD07B56B460122D91D087049
:104630009D20FFF749FB07BD07B50B00072201A925
:1046400010401A0C5BBA08704A70972004224B8005
:10465000FFF73AFB07BD000010B50400FFF7E6FACC
:104660002000FFF7D7FAFFF713FB0020FFF7DAFE71
:104670000A4B1B78002B08D0FFF7D6FA81010220E5
:10468000FFF7DAFF7F20FFF769FF0120FFF7CBFF7D
:104690000122034B00201A7010BDC046BD0000204F
:1046A0007D07002037B50D4D04002B78002B03D17A
:1046B000FFF75CFF01232B70200005F0B5F9084BD4
:1046C000002203F047FF03F0A9F900BA0190042289
:1046D000862001A9FFF7F8FA37BDC0467C07002005
:1046E0008084EE3F07B56B46D91D044B08701870E7
:1046F00001228A20FFF7E8FA07BDC0467E070020A6
:10470000014B18787047C0467E07002037B505007A
:1047100000200C00FFF7FBFB0200012822D1030060
:1047200000210F2D15D10620FFF754FF2B1C5AB284
:104730000E2A00DD0E2318215DB21E48FFF744FB50
:104740006B4602228E2001A91D715C71FFF7BCFA35
:1047500037BD0420FFF73EFF2B1CEA1CE7DA164B9F
:104760001B78E4E7154B187802281AD0032806D0E6
:1047700001281AD1030000220521032003E00221B1
:10478000012300220800FFF725FF2B1CEA1C01DA99
:10479000094B1B785AB2162A00DD162338215DB268
:1047A000CBE7012300220321EDE7012300220721AB
:1047B0000420E8E7E70800009DA10000740700203E
:1047C00013B5040008226846204905F019FA204B69
:1047D00020781B78834201D0FFF784FF2378002BD9
:1047E00002D0012B2DD013BD606805F01DF9020029
:1047F0000B000020174903F0ADFE0022164B04F019
:10480000AFFA03F00BF96A46030C1370030A9070B9
:104810005370237BA068D370637B137105F004F998
:1048200000220E4B03F096FE03F0F8F86A46030CE4
:1048300040BA5371D080082269468B20FFF744FAB2
:10484000D1E7236904220093F6E7C0469EA1000049
:104850007E07002080847E41000040408084EE3F3F
:1048600030B50400224985B001AD09222800083185
:1048700005F0C6F91F4B20781B78834201D0FFF763
:1048800031FF2378002B03D0012B28D005B030BD99
:10489000637AF12B19D11848FFF76AFD1748FFF723
:1048A00079FD02236288A18852BA2A80227A69801F
:1048B000AA710922E188EB71A37AA9802B722900E1
:1048C0008C2092B2FFF700FAE0E7F22BEAD10C4815
:1048D000FFF74EFD0B48FFF75DFD0623E2E7A389D6
:1048E00006225BBA2B80E3896B80238AAB80E6E7E4
:1048F0009EA100007E070020FFFF00000580000051
:104900000F1D00002110000037B56D46069CEB70AE
:10491000230C28706970AA702B716946230A05223E
:1049200088206B71AC71FFF7CFF90722014B1A7029
:1049300037BDC0467D07002007B56B4602221871BF
:1049400059718F2001A9FFF7BFF907BD13B501AC5D
:10495000012221001520FFF7DFF9207840424010A6
:1049600016BD000037B504000D000222132001A976
:10497000FFF7D2F90B4B1B78012B0ED10A48FFF73A
:104980005FFAC009C0B2012807D10848FFF758FAFA
:1049900020706B465B792B7037BD6B461B7923709B
:1049A000F7E7C0467E07002004070000020700006A
:1049B000F7B50C006B4600270500D91D2000160036
:1049C000DF71FFF7CFFF22780120B24205D86B4696
:1049D0002900D879FFF768FA3800FEBD37B5040022
:1049E00001AD032229001420FFF796F9184B1A781D
:1049F0002270002A09D0012A13D01422002120009D
:104A000005F007F90F2323700AE02B78A2602371C9
:104A10006B785B425B10A371AB785B425B10637198
:104A200037BD01222B78AA565B425B1023736B784B
:104A3000002A09DB9B086373AB785B425B10A373AE
:104A4000044B1B682361EBE7013BFF3B9B10F2E744
:104A50007E0700207807002007B5022201A940BA8E
:104A600008801000FFF730F907BD10B501F01EFDFA
:104A700010BD0000114B70B51C78002C1CD121001A
:104A80002120FDF7CFFF0E4D2B78002B03D0210006
:104A90001920FDF7C7FF02F021F900F033F8094BA8
:104AA000012118602120FDF7BDFF2B78002B03D0DA
:104AB00002211920FDF7B6FF70BDC046E4070020B3
:104AC000080300200C03002070B5022001F064FBF5
:104AD000010000230548064C05684A1B25686668E6
:104AE0005219734101602260636070BD8807002025
:104AF000800700200023036043600372C1600361EC
:104B000070470000F8B501F0D4F90500022001F06B
:104B100043FB00210D4A0E4C16680300801B2668DB
:104B2000676880197941206061602800136001F096
:104B3000C4F920686168FA220023920002F046FF5F
:104B40004B04C00B1843C90BF8BDC04688070020B2
:104B50008007002010B5FFF7D5FF034B1A685B688C
:104B6000801A994110BDC04690070020012370B5FE
:104B7000037205000468FFF7EDFF0322002380188D
:104B80005941002901D1A04203D9FFF7E3FF0330C7
:104B900028602C68044802F053F92000032C00D24E
:104BA000032002F055F970BD054D0000054A10B50F
:104BB0001368002B01D00021197203611060FFF708
:104BC000D5FF10BD9807002070B50A4D2C68FFF77F
:104BD00099FF094B03C51B68051B201A002B00D148
:104BE00070BD19680022A94200D942181A601B69D9
:104BF000F4E7C0469007002098070020F8B50400AD
:104C000000F0FEF8154D06002B68002B01D0002C9B
:104C100003D1300000F0F8F8F8BDA34214D1237A94
:104C20002769002B0ED0002F0AD0002323722F609B
:104C3000FFF7CAFF2868FFF799FF00232372E8E710
:104C400002F09EF92F60F8E71A001B69002BF4D0E0
:104C50009C42F9D123691361EFE7C0469807002011
:104C600070B50C000500FFF7C9FF032C00D2032428
:104C70002C606C6070BD0000F8B5040000F0C0F856
:104C80000500002C11D01D4F3A681300002B10D1E5
:104C9000616823722160002A0FD1FFF733FF184BA0
:104CA000186059602000FFF781FF280000F0ACF881
:104CB000F8BD9C42F9D01B69E8E7FFF74BFF23687A
:104CC0000600C2183B68226019688A4205D2FFF7C5
:104CD0007BFF23689E1B2660E4E71969186900289A
:104CE00002D11C612061E0E70868824202D90B0012
:104CF0000969F3E71C612161D7E7C04698070020E6
:104D00009007002070B5FFF75FFF0025134C236864
:104D1000002B07D12068002817D170BD9847FFF7F6
:104D200053FFF3E71E68FFF715FF002905D1B042D6
:104D300003D823681B68002BECD1236801351A695E
:104D4000DB682260002BE9D1FEE7037A002B01D05B
:104D5000002DE2D1FFF70AFFDFE7C04698070020E9
:104D600010B5FFF7CFFE034B1A685B6880185941F6
:104D700010BDC046A007002070B50D000400FFF76D
:104D8000EFFF001BA94170BD10B580246402200014
:104D900001F08EF98020000301F0ECFA1F2001F0F1
:104DA000E5F90749022001F029FA022001F036FA5C
:104DB0000121022001F026F9200001F05DF910BD6B
:104DC000C94A0000064B07481A6810B55043064A06
:104DD00006498018186002F0ABFC080010BDC04600
:104DE000C00000206D4EC64139300000FFFFFF7F3C
:104DF00010B5FFF795F8FDF777FBFDF7DBFBFCE758
:104E0000EFF3108072B6704780F310887047044843
:104E10000449016070470248024901607047000080
:104E200004ED00E0000000109A4200D28854704760
:104E30007047F0B585B002930D9B0F0014000190F0
:104E40009B0732D000920B9E0B9A009B9D18AA1BC9
:104E5000002E2CD10D9B9B070FD52B1B039300938A
:104E6000009B0099E2180C9B8B4228D803990022E2
:104E70008B4201D3E418621BAD18280005B0F0BDC9
:104E800039002020029B019EB04701350B9BE21A9E
:104E90000C9B52199D42F3D30B9A0C9900238A4222
:104EA00000D88B1A1B190093CDE70B9DEEE70A9BE8
:104EB000013E985D3900029B019DA847C4E7029B13
:104EC00039002020019EB047009B0133C7E7F0B5B1
:104ED00089B0070010A806781498059106920E99DB
:104EE0000F9A139C079383071ED401250540002CBD
:104EF00007D0002D05D0002E02D10C23184200D07F
:104F0000013C30239C4602E063468B540132129BE5
:104F10009A4201D2202AF7D130239C46002D03D09B
:104F2000A24201D21F2A19D9C3063AD543051AD481
:104F3000002A18D0129B9A4201D0A24213D1551ECA
:104F4000012A0FD0119B023A102B0FD02A00119B7F
:104F5000022B21D11F2A0ED862251BE063468B54F9
:104F60000132DBE72A00119B102BF0D183060ED40F
:104F700078251F2A0ED90390019200913800079BD3
:104F8000069A05990294FFF754FF09B0F0BD582521
:104F90001F2AF0D88D5401321F2AECD830258D54A9
:104FA00001321F2AE7D82D25002E05D12B254307D6
:104FB00002D40307DFD520258D540132DBE7F0B59D
:104FC00097B00A921CAA0B9308CA0D001278219C74
:104FD00009900C92002B01D110229443620501D557
:104FE000002B1FD06122A10600D541221E00002700
:104FF000D2B20A3A0D9230001E9902F099FB0D9A36
:10500000CBB29A188446D2B2092901D83033DAB229
:10501000202006A90918CA551E9A7B1C964201D366
:10502000834213D1209A019305921F9A0EAB0492EA
:105030001E9A009303920C9A290002920B9B0A9AE3
:1050400009980694FFF743FF17B0F0BD1F006646AE
:10505000D1E7F0B59BB00D9322AB1B78209D0E934A
:105060002B00219C249F259E0A900B910C92234398
:1050700003D1289A10339A432892289B5B0504D5C4
:105080002A00002322439A422AD0289A61239206BA
:1050900000D541230022DBB20A3B09920F933A006C
:1050A00033002800210002F071FC0F9BD2B2D3180C
:1050B000DBB29C4610901191092A02D83032D3B24B
:1050C0009C4620200AAA12186046099B09990133C0
:1050D0005054A64204D801D1AF4201D8202B13D19D
:1050E000289A01930692279A12AB0592269A00936A
:1050F00004920E9A0D9B02920B990C9A0A980397B0
:10510000FFF7E5FE1BB0F0BD109D119C0993C6E7AB
:1051100010B5002801D001F039FC10BDF0B59BB0EE
:10512000209E219F09900A910B920C9332003B0024
:1051300030003900229C02F0FBFB002808D1249BA0
:105140000393239B029303230193B04B009324E02A
:10515000012230003900AE4B524202F0EFFB002832
:1051600007D0249B0393239B029304230193A94B11
:10517000ECE7012230003900A74B524202F0F2FB6B
:10518000002814D00423249A1A420DD0A34A24994B
:10519000019303912399009202910C9B0B9A0A9917
:1051A0000998FFF746FE1FE003239D4AEFE7002220
:1051B000300039009B4B02F0D5FB002807D10022BC
:1051C00030003900984B02F0B9FB00280ED0249B28
:1051D000009601970493239B0B9A03930A990C9BC7
:1051E0000998029400F026F91BB0F0BD00220023BC
:1051F0003000390002F0A2FB002877D03B003200DB
:105200000020002104F018F8012306000F000D9380
:10521000249B5B056CD52200302112AB203A089408
:105220000898251A092807D9089819700138089094
:1052300001339042F4D120253900300004F08EFB78
:10524000089B0790DA00794B9B185C681B680E93EB
:105250000F9404F0B9FB02000B003000390003F09A
:10526000EBFF0E9A0F9B03F07BFD1090119102F063
:10527000D5FB040004F0D8FB02000B001098119934
:1052800003F0DAFF00226A4B1090119102F06AFBE2
:1052900000282FD00134200004F0C6FB02000B00D0
:1052A0000E980F9902F054FB002803D00024079BAE
:1052B00001330793089B002B2AD00A27202D49D1C0
:1052C0000323249A1340012B00D08BE0239B002B57
:1052D00000D187E00D9B002B02D10C331A4202D083
:1052E000239B013B2393302212AB6FE00D908FE79D
:1052F000062490E70022109811994D4B02F01EFBF6
:105300000028D7D1002C01D0E307D3D50134D1E751
:10531000079804F059FB02000B003000390003F03D
:105320008BFF0022424B06000F0002F007FB002813
:1053300007D00022300039003D4B02F013FB00285B
:1053400004D00123079A1340D31807932C000A2690
:1053500012AF36E0089B3900013B2000089302F0B1
:10536000E7F918220CAB30319B1859552000390051
:105370006E1C02F057F9092C0DD835003020089B1F
:1053800012A99B19202D9BD06A1C9D4206D12E2369
:105390004B551500DAE7350004008FE74855150036
:1053A000F0E70798310002F0ADFA30310798E15587
:1053B000310002F0C1F901350790002800D17FE7E4
:1053C0002C00202DEDD17BE7EA5401352399A94229
:1053D00008D9202DF8D1249B01950393239B029398
:1053E00012ABB3E6202DF6D00D9A12AB002A03D0F3
:1053F0002D225A550135EEE7249A520701D52B226A
:10540000F7E7249A1207E6D52022F2E7B8A10000B8
:10541000FFFFEFFFBCA10000FFFFEF7FB3A1000083
:10542000AFA1000065CDCD4165CDCDC1C8A10000C3
:105430000000E03FF0B595B00F931A9B0E920A93CF
:105440001B9B0A9A0B930B9B0C900D91100019005B
:1054500002F06EFA002811D00122D44B0A980B9961
:10546000524202F07FFA002808D10122D04B0A985C
:105470000B99524202F062FA002813D01E9B0A9A3E
:1054800004931D9B0D9903931C9B0C9802930B9BFB
:10549000009201930F9B0E9AFFF740FE060030002A
:1054A00015B0F0BD002200230A980B9902F046FACD
:1054B000002800D162E18022120694460A9B0993DB
:1054C0000B9B6344079380231E9ADB001A401192C2
:1054D0001E9A1A4201D106231C93079B099E58006D
:1054E000B44B400DC01804F06FFAB34AB34B03F04D
:1054F00037FCB34AB34B02F0C3FC079BB24A1B0311
:105500001B0B1A4304000D0030001100AF4B0022AA
:1055100003F092FEAE4AAF4B03F022FC02000B00F8
:105520002000290002F0ACFC04F018FA089004F006
:105530004BFAA94AA94B06000F0003F011FC002208
:10554000A74B02F09DFC04F009FAA64AA64B3900CD
:105550001090300003F004FC060010980F0004F0D7
:1055600033FAA24AA24B03F0FBFB02000B0030000F
:10557000390003F061FE02000B0004000D0003F08F
:10558000EFFB220006000F002B002000290002F094
:1055900077FC002212901391964B3000390002F0F4
:1055A000D9FF0022944B02F06BFC02000B0030008C
:1055B000390002F0CFFF0022904B02F061FC0200A4
:1055C0000B003000390002F0C5FF0F0080210600FB
:1055D00022002B000020C90503F02EFE02000B0064
:1055E0003000390002F04CFC02000B0012981399B5
:1055F00002F0B0FF0022744B02F042FC804A109B84
:105600009446634400221B0503F0AAFB06000F002A
:1056100002000B000998079902F090F900280AD0BF
:10562000089B3000013B390008930022724B02F0C6
:1056300091FF06000F00C624089B63339C42A441DF
:105640001E9B644204341B0522D56E4A6E4B09989A
:10565000079902F091F9002800D195E000226B4BE8
:105660000998079902F06AF9002800D18CE0089B9C
:105670001C9A934200DB85E01300089A9D1A6B1E6A
:105680001C93802300241E9ADB001A431E92089468
:105690001D9B0025A34200D91D1B02231E9A1A4000
:1056A00010921E9A1A4203D0634263415B421D402E
:1056B000089B002B07D00998079932003B0002F0A5
:1056C00049FF09900791002200230A980B9902F0E4
:1056D00035F9002805D080200006844607996144EA
:1056E00007911E9A4A4B0D99134004931C9B099AEB
:1056F0000293079B0C980092019303950F9B0E9ABF
:10570000FFF70CFD0600002C00D1C8E61E9B4520CB
:105710009B0600D4203032000F9B0D990C9DA847AA
:1057200005230593002303930A330293089B771CF8
:10573000DB0F0193089B013CDA179D1855400F9B26
:105740003A000D990C9804940095FFF738FC109BD3
:105750000600002B00D1A2E60E9BC51A2C000E9B62
:105760001A191D9BA34219D80022AB4204D31D99DC
:105770000E9B8C4663449A1BB61890E60A9A0B9BC4
:1057800009929FE600237BE71C9B002B80D0119B96
:105790005A1E93411C9AD31A1C9379E720200F9B21
:1057A0000D990C9FB8470134D9E7C046FFFFEF7F42
:1057B000FFFFEFFF01FCFFFFFB799F501344D33F36
:1057C000B3C8608B288AC63F0000F03F0000F83F56
:1057D00061436F63A787D23F71A379094F930A4052
:1057E0000000E03F1655B5BBB16B0240EF39FAFE41
:1057F000422EE63F00002C400000244000001840EC
:10580000FF0300002D431CEBE2361A3F80842E413B
:10581000FFF7FFFFF0B59BB01500209F0D900E9194
:105820000F93002901D18C4B0D9300260BE00F9BA9
:1058300001330F93252816D03200741C2B000D9EC7
:105840000E99B04726000F9B18780028EFD1320040
:10585000AE4200D36A1E2B0000200E990D9CA0477B
:1058600030001BB0F0BD00220120082405E02D2BE4
:1058700016D0302B0CD102430F910F9B0F991B7840
:1058800001312B2B0FD0F2D8202B0ED0232B0ED092
:105890001800303809282DD800230A240B930EE075
:1058A00002231A43E8E70423FBE72243E4E710233B
:1058B000F7E70B9B0F906343303BCB180B930F9B89
:1058C0001978581C0B00303B092BF2D90F9B1B7821
:1058D0002E2B57D10F9B591C8023DB001A430F9BA3
:1058E0005B781800303809283ED800230C930A331F
:1058F0009C4615E000200B902A2BE7D108CF0B9394
:10590000834204DA02231A430B9B5B420B930F91F1
:10591000DCE760460C99414330395B1821000C9359
:105920000B784C1C180030380928F2D908784B1C29
:105930006C2832D02AD8682837D06A283DD00B008E
:105940001C7801330F93782C04D8572C38D8452C69
:1059500062D05CD8731C320020000B930E992B0090
:105960000D9CA0470B9E6EE700200C902A2BDDD1EA
:1059700008CF0C93DB430C99DB1719400C910F995E
:105980000231D3E700230F990C93CFE7742801D09D
:105990007A28D4D1802149000BE048786C28F9D1CD
:1059A000C0239B001A438B1CCAE74878682802D0A2
:1059B00080210A43C4E7C023F4E780218900F8E787
:1059C000200058382028C5D801F022FE4800C4FF26
:1059D000C4FFC4FFC4FFC4FFC4FFC4FFC4FFC4FFAF
:1059E0004800F80048002600E5002600C4FF4800F3
:1059F000C4FFC4FFC4FFC4FFC4FF4800B701C4FF15
:105A0000C4FF4001C4FF4800C4FFC4FF4800462C47
:105A100000D1BEE0472C9DD1202321009943472986
:105A200004D180231B011A4302239C43452C01D13E
:105A300020231A43072307379F430B9B04920393AA
:105A40000C9B0E9902930CCF0D98009201932B00A2
:105A50003200FFF7EFFCAFE0314E0000782C47D06A
:105A6000582C00D17DE16F2C00D17EE1622C00D159
:105A70007DE110239A43063B692C03D0642C01D0AE
:105A80000C218A43510501D501218A4380218900D7
:105A90001140692C01D0642C46D100292AD007215D
:105AA00007378F433C0003CF049300230593CB0FAC
:105AB0000293CB1713931293434014930892139BB2
:105AC0000B9A4B4007920C9A1593069212981399D1
:105AD000149A159B121A8B410834009201930E9967
